:060000000A128A11FC2F18
:100ECE00831203138C1E6C2F6D2F672F8C121A0832
:100EDE000800F00070088312031399000C1E782F7F
:100EEE00792F752F0C1208002430831603139800E7
:100EFE0090308312031398008130831603139900E8
:100F0E00831203138C120C12080083160313871717
:100F1E00871B922F962F831603130717992F83166D
:100F2E000313071388018312031388110811881005
:100F3E0008100A128A117B270A128A1183120313D0
:100F4E008C1EAA2FAB2FA52F0A128A1167270A1201
:100F5E008A11F10071080A128A1170270A128A1179
:100F6E0046307106031DBC2FBD2FC42F83120313F1
:100F7E000814081588108811A52F52307106031D0C
:100F8E00C92FCA2FD12F8312031388148815081066
:100F9E000811A52F57307106031DD62FD72FDE2F20
:100FAE00831203130814881008118811A52F4C30D2
:100FBE007106031DE32FE42FEB2F83120313081585
:100FCE00881008108811A52F53307106031DF02FBD
:100FDE00F12FF82F831203138811081188100810AF
:100FEE00A52FA52F0A128A11002883010A128A1131
:020FFE008C2F36
:08400000FF3FFF3FFF3FFF3FC0
:02400E00323D41
:00000001FF
